:020000040800F2
:1000000000C00020D52C0008690700086B07000815
:100010006D0700086F070008710700080000000066
:10002000000000000000000000000000730700084E
:10003000750700080000000077070008790700082E
:10004000252D0008252D0008252D0008252D000848
:10005000252D0008252D0008252D0008252D000838
:10006000252D0008252D0008252D0008252D000828
:10007000252D0008252D0008252D0008252D000818
:10008000252D0008252D0008252D0008252D000808
:10009000252D0008252D0008252D0008252D0008F8
:1000A000252D0008252D0008252D0008252D0008E8
:1000B000810700080000000000000000252D000856
:1000C000252D0008252D0008252D0008252D0008C8
:1000D000252D000891070008252D0008252D000872
:1000E000252D0008252D000800000000000000005C
:1000F0000000000000000000000000000000000000
:1001000000000000252D000800000000252D00083B
:100110000000000000000000252D0008252D00082B
:10012000252D0008252D0008252D0008252D000867
:10013000252D000800000000000000000000000065
:10014000252D0008252D0008252D0008252D000847
:10015000252D0008252D0008252D0008252D000837
:10016000252D0008252D0008252D00080000000081
:10017000252D0008252D0008252D00080000000071
:10018000252D0008252D0008252D00080000000061
:1001900010B5054C237833B9044B13B10448AFF3C1
:1001A00000800123237010BD20000020000000000B
:1001B000802D000808B5034B1BB103490348AFF37A
:1001C000008008BD0000000024000020802D0008F1
:1001D00053B94AB9002908BF00281CBF4FF0FF31AE
:1001E0004FF0FF3000F074B9ADF1080C6DE904CEAA
:1001F00000F006F8DDF804E0DDE9022304B0704702
:100200002DE9F047089D04468E46002B4DD18A42C9
:10021000944669D9B2FA82F252B101FA02F3C2F1FC
:10022000200120FA01F10CFA02FC41EA030E94408D
:100230004FEA1C48210CBEFBF8F61FFA8CF708FBAE
:1002400016E341EA034306FB07F199420AD91CEB86
:10025000030306F1FF3080F01F81994240F21C81B8
:10026000023E63445B1AA4B2B3FBF8F008FB103300
:1002700044EA034400FB07F7A7420AD91CEB040435
:1002800000F1FF3380F00A81A74240F20781644405
:10029000023840EA0640E41B00261DB1D44000238A
:1002A000C5E900433146BDE8F0878B4209D9002DEE
:1002B00000F0EF800026C5E9000130463146BDE878
:1002C000F087B3FA83F6002E4AD18B4202D38242E2
:1002D00000F2F980841A61EB030301209E46002D91
:1002E000E0D0C5E9004EDDE702B9FFDEB2FA82F2E6
:1002F000002A40F09280A1EB0C014FEA1C471FFA44
:100300008CFE0126200CB1FBF7F307FB131140EA2A
:1003100001410EFB03F0884208D91CEB010103F1F7
:10032000FF3802D2884200F2CB804346091AA4B2B9
:10033000B1FBF7F007FB101144EA01440EFB00FE8D
:10034000A64508D91CEB040400F1FF3102D2A645F2
:1003500000F2BB800846A4EB0E0440EA03409CE791
:10036000C6F12007B34022FA07FC4CEA030C20FA3E
:1003700007F401FA06F31C43F9404FEA1C4900FA5E
:1003800006F3B1FBF9F8200C1FFA8CFE09FB1811DB
:1003900040EA014108FB0EF0884202FA06F20BD94E
:1003A0001CEB010108F1FF3A80F08880884240F29E
:1003B0008580A8F102086144091AA4B2B1FBF9F0E2
:1003C00009FB101144EA014100FB0EFE8E4508D9DD
:1003D0001CEB010100F1FF346CD28E456AD9023862
:1003E000614440EA0840A0FB0294A1EB0E01A14247
:1003F000C846A64656D353D05DB1B3EB080261EBB5
:100400000E0101FA07F722FA06F3F1401F43C5E98E
:10041000007100263146BDE8F087C2F12003D840C4
:100420000CFA02FC21FA03F3914001434FEA1C4706
:100430001FFA8CFEB3FBF7F007FB10360B0C43EAF8
:10044000064300FB0EF69E4204FA02F408D91CEBA8
:10045000030300F1FF382FD29E422DD902386344A6
:100460009B1B89B2B3FBF7F607FB163341EA034146
:1004700006FB0EF38B4208D91CEB010106F1FF3895
:1004800016D28B4214D9023E6144C91A46EA00468C
:1004900038E72E46284605E70646E3E61846F8E61E
:1004A0004B45A9D2B9EB020864EB0C0E0138A3E767
:1004B0004646EAE7204694E74046D1E7D0467BE748
:1004C000023B614432E7304609E76444023842E7C0
:1004D000704700BF82B0064BDA6C42F00202DA6469
:1004E000DB6C03F002030193019B02B0704700BF75
:1004F00000100240114B1B78312B02D0322B0ED052
:1005000070470F4B01221A60002305E09A1C0B492B
:10051000895C0C4AD1540133032BF7D170470A4B45
:1005200001221A60002305E09A1C0449895C074AED
:10053000D1540133032BF7D1E2E700BF0C000020B8
:100540003C000020080000201401002014000020BE
:1005500008B5204B1B68012B07D01BB91E4A126837
:10056000012A0DD0012B12D008BD1B4A1268002AA7
:10057000F3D128221949C9B2194801F0D3FDF3E794
:1005800027221849C9B2164801F0CCFDECE7124BFE
:100590001B68012BE8D120221349C9B2104801F091
:1005A000C1FD00230B4A13600B4A136004E00F4A9D
:1005B000D15C0F4AD1540133032BF8D1002305E05D
:1005C000DA1C0C49C85C0A4988540133032BF7D163
:1005D000CAE700BF3C00002014010020982D00084D
:1005E0008C000020C42D0008EC2D0008080000201D
:1005F000000000201400002008B50368B3F1804F0C
:1006000000D008BDFFF7A4FFFBE772B6FEE70000CD
:1006100000B589B0002304930593069307930193D3
:100620000293039313484FF08042026049F63F4221
:1006300042608360104AC2600361836100F092FAF5
:1006400090B94FF48053049304A90A4800F0C8FA03
:1006500060B900230193039301A9064800F040FB11
:1006600030B909B05DF804FBFFF7CFFFFFF7CDFF0E
:10067000FFF7CBFF4000002000DD6D0008B50B4800
:100680000B4B03604FF41653436000238360C36039
:1006900003610C2242618361C3610362436202F021
:1006A0004CFA00B908BDFFF7B0FF00BF8C00002076
:1006B0000038014000B597B04422002105A802F09F
:1006C00057FB0023009301930293039304934FF489
:1006D000007001F0F3FB28BB1023059301220B925D
:1006E00000230C9360230D9302230F931092119219
:1006F00028221292072213921493159305A800F052
:1007000017FC88B90F23009303230193002302935E
:10071000039304930421684600F040FF30B917B0FA
:100720005DF804FBFFF771FFFFF76FFFFFF76DFF49
:1007300008B500F039FBFFF7BDFFFFF7CBFEFFF771
:1007400067FFFFF79BFF054800F0DCF8052204492E
:10075000044802F08DFAFFF7CDFEF7E740000020D5
:100760000C0000208C000020FEE7FEE7FEE7FEE71D
:10077000FEE770477047704708B500F025FB08BDDD
:1007800008B5024800F0F8F808BD00BF400000209E
:1007900008B5024801F018FD08BD00BF8C0000201C
:1007A00082B00A4B1A6E42F001021A661A6E02F00B
:1007B00001020092009A9A6D42F080529A659B6DF8
:1007C00003F080530193019B02B070470010024078
:1007D0000368B3F1804F00D0704700B583B003F5D4
:1007E00004339A6D42F001029A659B6D03F0010398
:1007F0000193019B002211461C2001F0B9FB1C2033
:1008000001F0EEFB03B05DF804FB000010B5A0B0F2
:10081000044600211B911C911D911E911F91602285
:1008200003A802F0A5FA22681B4B9A4201D020B01F
:1008300010BD0123039303A801F054F848BB174BE4
:100840001A6E42F480421A661A6E02F480420192D5
:10085000019ADA6C42F00202DA64DB6C03F0020304
:100860000293029BC0231B9302231C9300241D941C
:1008700003231E9307231F931BA9094801F0E4F9E2
:1008800022462146252001F073FB252001F0A8FB1C
:10089000CDE7FFF7BAFED2E7003801400010024072
:1008A0000004004810B4036A046A24F001040462DE
:1008B000846924F0F00C4CEA021223F00A030B4383
:1008C000826103625DF8044B704710B4036A046AE6
:1008D00024F010040462846924F4704C4CEA02325F
:1008E00023F0A00343EA0113826103625DF8044B25
:1008F0007047836823F070030B4343F00703836062
:100900007047000090F83D30DBB2012B26D1022366
:1009100080F83D300268D36843F00103D360036878
:10092000114A93420CD0B3F1804F09D002F5A05286
:10093000934205D01A6842F001021A600020704705
:1009400099680A4A0A40062A0AD0B2F5803F09D0BF
:100950001A6842F001021A600020704701207047B7
:100960000020704700207047002C01400700010064
:10097000704770477047704770B504460368DE687B
:100980001D6915F0020F10D016F0020F0DD06FF098
:1009900002021A610123037703689B6913F0030FB6
:1009A00064D0FFF7E6FF0023237715F0040F12D081
:1009B00016F0040F0FD023686FF004021A610223AF
:1009C000237723689B6913F4407F55D02046FFF7B7
:1009D000D0FF0023237715F0080F12D016F0080F70
:1009E0000FD023686FF008021A610423237723686D
:1009F000DB6913F0030F46D02046FFF7BAFF002350
:100A0000237715F0100F12D016F0100F0FD02368B7
:100A10006FF010021A61082323772368DB6913F44F
:100A2000407F37D02046FFF7A4FF0023237715F03F
:100A3000010F02D016F0010F33D115F0800F02D054
:100A400016F0800F35D115F4807F02D016F0800F9C
:100A500037D115F0400F02D016F0400F39D115F004
:100A6000200F02D016F0200F3BD170BDFFF780FFA2
:100A70002046FFF77FFF96E72046FFF779FF2046E5
:100A8000FFF778FFA5E72046FFF772FF2046FFF744
:100A900071FFB4E72046FFF76BFF2046FFF76AFFC0
:100AA000C3E723686FF001021A612046FFF7A4FD37
:100AB000C3E723686FF080021A61204600F049F90D
:100AC000C1E723686FF480721A61204600F042F992
:100AD000BFE723686FF040021A612046FFF74BFF23
:100AE000BDE723686FF020021A61204600F030F95C
:100AF000BBE7000003681A4A904202D0B0F1804F71
:100B000003D123F070034A681343154A90420AD078
:100B1000B0F1804F07D002F5A052904203D002F509
:100B20008062904203D123F44073CA68134323F0D8
:100B300080034A69134303608B68C3620B68836256
:100B4000074B984207D003F5A053984203D003F512
:100B50008063984201D10B690363012343617047AD
:100B6000002C014060B310B5044690F83D3013B33B
:100B7000022384F83D30214651F8040BFFF7BAFFF9
:100B8000012384F8483084F83E3084F83F3084F8FC
:100B9000403084F8413084F8423084F8433084F89F
:100BA000443084F8453084F8463084F8473084F87F
:100BB0003D30002010BD80F83C30FFF709FED7E73C
:100BC0000120704710B4846824F47F4C42EA032269
:100BD0000A4342EA0C0282605DF8044B7047000051
:100BE00090F83C30012B76D010B50446012380F8F4
:100BF0003C30022380F83D3002689068374B034058
:100C000093600B68602B4CD029D8402B54D00CD962
:100C1000502B22D1CA6849682068FFF743FE502153
:100C20002068FFF766FE002005E0202B0DD009D9D3
:100C3000302B0AD00120012384F83D30002384F8B2
:100C40003C3010BD0BB1102B05D119462068FFF7C1
:100C500050FE0020EFE70120EDE70120EBE7B3F5C0
:100C6000805F34D0B3F5005F0CD1CB684A688968E7
:100C70002068FFF7A7FF2268936843F480439360DE
:100C80000020D8E7702B24D1CB684A688968206897
:100C9000FFF798FF2268936843F077039360002082
:100CA000C9E7CA6849682068FFF70FFE602120681D
:100CB000FFF71FFE0020BEE7CA6849682068FFF7FB
:100CC000F1FD40212068FFF714FE0020B3E700206B
:100CD000B1E70120AFE70220704700BF8800FEFFA8
:100CE00090F83C30012B2FD030B4012380F83C30F9
:100CF000022380F83D30026853689468134DAA427D
:100D00001DD023F070030D682B43536003680F4A16
:100D1000934206D0B3F1804F03D002F5A052934224
:100D200004D124F080048A6814439C60012380F875
:100D30003D30002380F83C30184630BC704723F427
:100D400070034D682B43DCE702207047002C014004
:100D50007047704770470000104B1B780BB901209B
:100D6000704710B504464FF47A70B0FBF3F30C4AA9
:100D70001068B0FBF3F001F041F968B90F2C01D90C
:100D800001200AE0002221464FF0FF3001F0F0F888
:100D9000044B1C60002000E0012010BD1700002063
:100DA0001C0000201800002010B5032001F0CEF830
:100DB0000F20FFF7D1FF10B10124204610BD0446DB
:100DC000FFF7EEFCF9E70000034B1B78034A1168BC
:100DD0000B441360704700BF17000020180100206B
:100DE000014B1868704700BF1801002030B583B070
:100DF0000446204B9B6D13F0805F0BD001F056F83A
:100E0000B0F5007F17D0802C1FD82DD0702C2DD09E
:100E100000211BE0174DAB6D43F08053AB65AB6D0C
:100E200003F080530193019B01F040F8AB6D23F078
:100E30008053AB65E4E7802C03D9A02C03D90221B1
:100E400004E0002102E0012100E003210A4A1368C6
:100E500023F007030B431360136803F007038B426F
:100E600006D1002003B030BD0221EFE70121EDE7FC
:100E70000120F7E70010024000200240284A936852
:100E8000D26802F0030213F00C030AD00C2B06D038
:100E9000042B1FD0082B20D00020024610E0012A8E
:100EA000F6D11F4A126812F0080F0CD11C4AD2F872
:100EB0009420C2F303221B4951F8222043B10020A1
:100EC0000C2B0DD07047164A1268C2F30312F2E7DA
:100ED0001046F5E714480022F2E714480022EFE735
:100EE0000F4BDB6803F00303022B16D0032B00D15A
:100EF0000E4A0B49C868C0F30210431CC868C0F30F
:100F0000062002FB00F0B0FBF3F0CB68C3F34163B3
:100F100001335B00B0FBF3F0D4E7034AE9E700BF1D
:100F200000100240282E00080024F40000127A006D
:100F3000002800F01C83F0B583B00446964B9D68F2
:100F400005F00C05DE6806F00306036813F0100FC9
:100F50005AD0E5B10C2D18D0A369002B00F0BB804E
:100F60008D4A136843F001031360FFF739FF07460A
:100F7000894B1B6813F0020F40F09A80FFF730FF97
:100F8000C01B0228F4D90320FCE2012EE4D1824BDD
:100F90001B6813F0020F03D0A369002B00F0E98255
:100FA000206A7D4B1B6813F0080F5BD07A4B1B68DF
:100FB00003F0F00398425CD8774B1A6842F00802BD
:100FC0001A601A6822F0F002216A0A431A605A680D
:100FD00022F47F42E16942EA01225A60002D60D08A
:100FE000FFF74CFF6C4B9B68C3F303136B4AD35C56
:100FF00003F01F03D8406A4B18606A4B1868FFF76C
:10100000ABFE002840F0BE82236813F0010F00F011
:101010008180082D75D00C2D71D06368B3F5803FA9
:1010200000F09780B3F5A02F00F099805A4B1A6812
:1010300022F480321A601A6822F480221A606368EF
:10104000002B00F09980FFF7CBFE0746524B1B6840
:1010500013F4003F5ED1FFF7C3FEC01B6428F5D92F
:1010600003208FE24C4BD3F894301B0903F0F003BC
:10107000A0E7FFF7BBFE002840F07D82464B1A68D0
:1010800042F008021A601A6822F0F002216A0A434C
:101090001A605A6822F47F42E16942EA01225A60EA
:1010A0009EE7206AFFF7A2FE002899D0012069E29E
:1010B000394B1A6842F008021A601A6822F0F002EE
:1010C000216A0A431A605A6822F47F42E16942EABF
:1010D00001225A6098E7304A136823F00103136035
:1010E000FFF77EFE07462C4B1B6813F0020F8BD0D8
:1010F000FFF776FEC01B0228F5D9032042E2032E3B
:101100008BD1254B1B6813F4003F03D06368002B81
:1011100000F03382236813F0020F58D0042D45D01D
:101120000C2D41D0E368002B77D01B4A136843F4A1
:1011300080731360FFF754FE0646174B1B6813F4C9
:10114000806F61D1FFF74CFE801B0228F5D9032088
:1011500018E2114A136843F4803313606FE703F118
:101160008043A3F53C331A6842F480221A601A685F
:1011700042F480321A6062E7FFF732FE0746064B00
:101180001B6813F4003FC5D0FFF72AFEC01B64287C
:10119000F5D90320F6E100BF00100240102E000830
:1011A0001C00002018000020022EBBD1A44B1B689D
:1011B00013F4806F03D0E368002B00F0E081A04AB5
:1011C000536823F0F853216943EA016353602368AD
:1011D00013F0080F4CD063699BB3994AD2F894304E
:1011E00043F00103C2F89430FFF7FAFD0646944B32
:1011F000D3F8943013F0020F3AD1FFF7F1FD801BC2
:101200000228F4D90320BDE18D4A536823F0F85336
:10121000216943EA01635360D9E7894A136823F4DB
:1012200080731360FFF7DCFD0646854B1B6813F4E3
:10123000806FCCD0FFF7D4FD801B0228F5D90320A6
:10124000A0E17F4AD2F8943023F00103C2F8943031
:10125000FFF7C6FD06467A4BD3F8943013F0020F21
:1012600006D0FFF7BDFD801B0228F4D9032089E1D9
:10127000236813F0040F7AD0714B9B6D13F0805FDD
:1012800036D16F4B9A6D42F080529A659B6D03F098
:1012900080530193019B01266A4B1B6813F4807FE6
:1012A00028D0A368012B39D0052B3FD0644BD3F84D
:1012B000902022F00102C3F89020D3F8902022F071
:1012C0000402C3F89020A368002B3DD0FFF788FDEF
:1012D00007465B4BD3F8903013F0020F46D1FFF76F
:1012E0007FFDC01B41F288339842F2D9032049E1C7
:1012F0000026D1E7534A136843F480731360FFF765
:101300006FFD07464F4B1B6813F4807FC9D1FFF771
:1013100067FDC01B0228F5D9032033E1484AD2F803
:10132000903043F00103C2F89030CCE7444BD3F83F
:10133000902042F00402C3F89020D3F8902042F0AD
:101340000102C3F89020BEE7FFF74AFD07463C4B79
:10135000D3F8903013F0020F08D0FFF741FDC01B07
:1013600041F288339842F2D903200BE1E6B92368B1
:1013700013F0200F35D0636AE3B1314AD2F89830C8
:1013800043F00103C2F89830FFF72AFD06462C4BC4
:10139000D3F8983013F0020F23D1FFF721FD801B03
:1013A0000228F4D90320EDE0254A936D23F0805301
:1013B0009365DCE7224AD2F8983023F00103C2F8A3
:1013C0009830FFF70DFD06461D4BD3F8983013F00B
:1013D000020F06D0FFF704FD801B0228F4D903207A
:1013E000D0E0A36A002B00F0CC80022B17D00C2D8C
:1013F00000F0CC80124A136823F080731360FFF76B
:10140000EFFC04460E4B1B6813F0007F00F0A88031
:10141000FFF7E6FC001B0228F4D90320B2E0084BDA
:10142000DB6803F00301E26A91420DD00C2D00F05D
:10143000AB80034B1B6813F0806F2FD00120A1E01D
:10144000001002400070004003F07002216B01396F
:10145000B2EB011FEAD103F4FE42616BB2EB012F44
:10146000E4D103F07842A16BB2EBC16FDED103F49B
:10147000C001E26B5208013AB1EB425FD6D103F0F2
:10148000C063226C5208013AB3EB426FCED1404B9D
:101490001B6813F0007F49D0002073E03C4A1368BA
:1014A00023F080731360FFF79BFC0546384B1B68E5
:1014B00013F0007F06D0FFF793FC401B0228F5D9FC
:1014C00003205FE0324AD36832491940E36A206B57
:1014D000013843EA0013606B43EA0023E06B4008E5
:1014E000013843EA4053206C4008013843EA406326
:1014F000A06B43EAC0630B43D360136843F080736F
:101500001360D36843F08073D360FFF769FC04462F
:101510001F4B1B6813F0007F06D1FFF761FC001B17
:101520000228F5D903202DE000202BE0184B1A6883
:1015300042F080721A60DA6842F08072DA60FFF777
:101540004FFC0446124B1B6813F0007F06D1FFF7D7
:1015500047FC031B022BF5D9032013E0002011E008
:101560000B4AD1680C4B0B40D36000200AE00120ED
:101570007047012006E0012004E0012002E0012084
:1015800000E0002003B0F0BD0120FBE70120F9E7F7
:10159000001002408C809D01FCFFEEFE002800F050
:1015A000AF8070B50D460446594B1B6803F0070326
:1015B0008B420BD2564A136823F007030B43136088
:1015C000136803F007038B4240F09C80236813F0FC
:1015D000020F0CD0A2684F4B9B6803F0F0039A42B5
:1015E00005D94C498B6823F0F0031A438A602368BD
:1015F00013F0010F39D06368032B09D0022B26D0DA
:1016000063BB444A126812F0020F06D1012076E053
:10161000404A126812F0007F76D03E498A6822F074
:10162000030213438B60FFF7DBFB0646394B9B68D5
:1016300003F00C036268B3EB820F16D0FFF7D0FB08
:10164000801B41F288339842F0D9032057E0314A99
:10165000126812F4003FE0D1012050E02D4A1268D8
:1016600012F4806FD9D1012049E0236813F0020FF2
:101670000CD0A268274B9B6803F0F0039A4205D276
:1016800024498B6823F0F0031A438A60204B1B68BF
:1016900003F00703AB420AD91D4A136823F007037E
:1016A0002B431360136803F00703AB422ED123686A
:1016B00013F0040F06D0174A936823F4E063E1683F
:1016C0000B439360236813F0080F07D0114A936807
:1016D00023F46053216943EAC1039360FFF7CEFB13
:1016E0000C4B9B68C3F303130B4AD35C03F01F033B
:1016F000D8400A4B18600A4B1868FFF72DFB70BDE5
:10170000012070470120FAE70120F8E70120F6E701
:101710000020024000100240102E00081C00002093
:1017200018000020014B1868704700BF1C00002003
:1017300008B5FFF7F7FF054B9B68C3F30223044A84
:10174000D35C03F01F03D84008BD00BF0010024067
:10175000202E000808B5FFF7E5FF054B9B68C3F393
:10176000C223044AD35C03F01F03D84008BD00BF66
:1017700000100240202E0008F8B504460F46584BD2
:10178000DB6813F0030F18D0554BDB6803F003033D
:101790000268934202D001252846F8BD002A00F0D5
:1017A0009D804F4BDB68C3F30213013342689342C1
:1017B00001D00125F0E7002509E00368022B56D08F
:1017C000032B5BD0012B41D00125002DE4D1444AED
:1017D000136823F080631360FFF702FB0646404B5B
:1017E0001B6813F0006F05D0FFF7FAFA831B022B7A
:1017F000F5D90325002DCFD1002F4DD138490B69E4
:1018000023F0784323F4FE43A068E268D20642EA5C
:10181000002213430B61324A136843F08063136064
:10182000FFF7DEFA06462E4B1B6813F0006F05D15A
:10183000FFF7D6FA831B022BF5D90325002DABD178
:10184000274A1369A1690B431361A5E7244A12686B
:1018500012F0020F1ED02248C26822F073026168A3
:10186000013943EA01131343C3600025ADE71C4A65
:10187000126812F4806FEED10125A6E7184A1268AB
:1018800012F4003FE7D1164A126812F4802FE2D119
:1018900001259AE7012598E7012F0FD0104802692A
:1018A00022F0C06222F4FE42A16863695B08013B3A
:1018B0005B0643EA012313430361ACE7084802696E
:1018C00022F4C00222F4FE42A16823695B08013BB6
:1018D0005B0543EA0123134303619CE701255BE7B2
:1018E000001002402DE9F04182B00446036813F471
:1018F000006F25D0436CB3F5000F06D0B3F5400F51
:1019000012D04BB1012637461CE0B14AD36843F4EC
:101910008033D360002708E000210430FFF72CFF5C
:10192000074610B106460DE00027A94AD2F88830D4
:1019300023F44003616C0B43C2F88830002601E0B9
:1019400000263746236813F4003F6BD0A04B9B6DF5
:1019500013F0805F4CD19E4B9A6D42F080529A6595
:101960009B6D03F080530193019B4FF00108994A4E
:10197000136843F480731360FFF732FA0546954B02
:101980001B6813F4807F05D1FFF72AFA401B022859
:10199000F5D90327002F40D18D4BD3F8903013F4A5
:1019A000407315D0E26D9A4212D0894AD2F8903035
:1019B00023F44073D2F8901041F48031C2F89010B3
:1019C000D2F8901021F48031C2F89010C2F8903013
:1019D00013F0010F0FD1002F40F0F7807C4AD2F8AE
:1019E000903023F44073E16D0B43C2F8903015E062
:1019F0004FF00008BBE7FFF7F3F90546744BD3F847
:101A0000903013F0020FE6D1FFF7EAF9401B41F2E4
:101A100088339842F2D90327DDE73E46B8F1000F3C
:101A200040F0DA80236813F0010F08D0684AD2F83A
:101A3000883023F00303216A0B43C2F888302368FF
:101A400013F0020F08D0624AD2F8883023F00C035A
:101A5000616A0B43C2F88830236813F0040F08D082
:101A60005B4AD2F8883023F03003A16A0B43C2F8F6
:101A70008830236813F0200F08D0554AD2F88830F8
:101A800023F44063E16A0B43C2F88830236813F4FF
:101A9000007F08D04E4AD2F8883023F44023E16B0F
:101AA0000B43C2F88830236813F4806F08D0484A8B
:101AB000D2F8883023F44013216C0B43C2F88830ED
:101AC000236813F0400F08D0414AD2F8883023F43D
:101AD0004053216B0B43C2F88830236813F0800F0A
:101AE00008D03B4AD2F8883023F44043616B0B4363
:101AF000C2F88830236813F4807F08D0344AD2F8C3
:101B0000883023F44033A16B0B43C2F8883023683C
:101B100013F4005F0FD02E4AD2F8883023F04063D0
:101B2000A16C0B43C2F88830A36CB3F1006F59D09D
:101B3000B3F1806F5BD0236813F4002F0FD0244AD9
:101B4000D2F8883023F04063E16C0B43C2F8883050
:101B5000E36CB3F1006F52D0B3F1806F54D02368BF
:101B600013F4802F0FD01A4AD2F8883023F0406344
:101B7000216D0B43C2F88830236DB3F1006F4BD059
:101B8000B3F1806F4DD0236813F4804F0CD0104A0E
:101B9000D2F8883023F04053616D0B43C2F888308F
:101BA000636DB3F1805F44D0236813F4004F08D015
:101BB000074AD2F8883023F08043A16D0B43C2F866
:101BC0008830304602B0BDE8F0813E4626E700BFCF
:101BD00000100240007000401A4A936D23F08053B9
:101BE00093651FE7D36843F48013D360A3E7012113
:101BF000201DFFF7C1FD00289DD006469BE7D36856
:101C000043F48013D360AAE70121201DFFF7B4FD40
:101C10000028A4D00646A2E7D36843F48013D3601B
:101C2000B1E70121201DFFF7A7FD0028ABD0064634
:101C3000A9E70221201DFFF79FFD0028B4D006462A
:101C4000B2E700BF00100240F0B583B0002362E0AD
:101C500085685E000324B44025EA0405CC68B440DE
:101C60002C438460446824EA0C0C4C68C4F30014D0
:101C70009C4044EA0C0444605EE0DD08083550F8FE
:101C8000256003F007044FEA840C0F2404FA0CF4D7
:101C900026EA040E0C6904FA0CF444EA0E0440F837
:101CA000254060E0042400E0002404FA0EF42C43F4
:101CB0000CF1020C524D45F82C40524CA568D4430F
:101CC00025EA02064F6817F4801F01D042EA050694
:101CD0004C4DAE60ED6804EA05064F6817F4001F2E
:101CE00001D042EA0506474DEE606D6804EA05063C
:101CF0004F6817F4003F01D042EA0506414D6E607F
:101D00002D682C404E6816F4803F01D042EA05044D
:101D10003C4A146001330A6832FA03F46ED04FF083
:101D2000010C0CFA03FC1CEA0202F3D04C6804F02C
:101D30000304013C012C8BD94C6804F00304032CF0
:101D40000CD0C4685D004FF0030C0CFA05FC24EACB
:101D50000C0C8C68AC4044EA0C04C4604C6804F081
:101D60000304022C89D004684FEA430E4FF0030CA1
:101D70000CFA0EFC24EA0C0C4C6804F0030404FA80
:101D80000EF444EA0C0404604C6814F4403FC1D0E3
:101D90001D4C256E45F001052566246E04F00104F6
:101DA0000194019C4FEA930C0CF10205144C54F879
:101DB000255003F003044FEA840E0F2404FA0EF4B6
:101DC00025EA0405B0F1904F3FF46EAF0F4CA042EE
:101DD0000ED004F58064A0420CD004F58064A042CB
:101DE0000AD004F58064A0423FF45CAF07245CE7AE
:101DF00001245AE7022458E7032456E703B0F0BD54
:101E000000000140000401400010024000040048AE
:101E100090F82530DBB2022B06D00423C3630023E5
:101E200080F82430012070470268136823F00E0305
:101E300013600268136823F001031360436C03F01E
:101E40001C03016C012202FA03F34B6080F8252089
:101E5000002380F824301846704708B590F82530E4
:101E6000DBB2022B03D00423C363012008BD026848
:101E7000136823F00E0313600268136823F0010354
:101E80001360436C03F01C03016C012202FA03F39C
:101E90004B6080F82520002380F82430836B13B139
:101EA00098470020E2E70020E0E70000024B1868B6
:101EB00000F4C060704700BF00700040B0F5007FC4
:101EC0000FD01F4B1B6803F4C063B3F5806F34D091
:101ED0001B4A136823F4C06343F48063136000203B
:101EE0007047174B1B6803F4C063B3F5007F20D025
:101EF000134A136823F4C06343F400731360114B57
:101F00001B68322202FB03F30F4AA2FB03239B0C44
:101F1000013300E0013B0A4A526912F4806F01D09C
:101F2000002BF7D1064B5B6913F4806F03D10020BF
:101F3000704700207047032070470020704700BFA3
:101F4000007000401C00002083DE1B43074AD3685A
:101F500023F4E0631B041B0C000200F4E060034365
:101F600043F0BF6343F40033D360704700ED00E0FB
:101F700000B5194BDB68C3F30223C3F1070CBCF1B6
:101F8000040F28BF4FF0040C03F1040EBEF1060F3E
:101F900018D9033B4FF0FF3E0EFA0CFC21EA0C016E
:101FA00099400EFA03F322EA0303194300280BDBDE
:101FB0000901C9B200F1604000F5614080F80013EA
:101FC0005DF804FB0023E5E700F00F000901C9B24A
:101FD000024B1954F4E700BF00ED00E014ED00E0FF
:101FE000002807DB00F01F02400901239340024A4A
:101FF00042F82030704700BF00E100E00138B0F146
:10200000807F0BD24FF0E0235861054AF02182F81F
:1020100023100020986107221A6170470120704741
:1020200000ED00E0026852E8003F23F4907342E8BC
:1020300000310029F6D1026802F1080353E8003F9D
:1020400023F00103083242E800310029F3D1036E86
:10205000012B06D02023C0F880300023036683665E
:102060007047026852E8003F23F0100342E8003155
:102070000029F6D1EEE7C36F212B00D07047B0F8EE
:1020800052309BB293B9026852E8003F23F08003BC
:1020900042E800310029F6D1026852E8003F43F0DF
:1020A000400342E800310029F6D17047C26C036852
:1020B00012781A85C36C0133C364B0F852309BB2F6
:1020C000013B9BB2A0F85230D8E7C36F212B00D060
:1020D0007047B0F852309BB293B9026852E8003FA3
:1020E00023F0800342E800310029F6D1026852E86B
:1020F000003F43F0400342E800310029F6D1704729
:10210000C36C1B880268C3F308031385C36C0233D6
:10211000C364B0F852309BB2013B9BB2A0F852307E
:10212000D6E70000C36F202B23D121B32AB3C164AB
:10213000A0F85020A0F852200023C366C0F88430D5
:102140002123C3678368B3F5805F0CD00C4BC36653
:10215000026852E8003F43F0800342E80031002962
:10216000F6D1002070470369002BEFD1054BC36601
:10217000EEE702207047012070470120704700BF42
:1021800077200008CB200008704708B5026852E8A5
:10219000003F23F0400342E800310029F6D120231C
:1021A000C3670023C366FFF7EFFF08BD70477047A2
:1021B00008B5806A0023A0F85A30A0F85230FFF723
:1021C000F6FF08BD7047000070B504460168CB6992
:1021D00008688D6840F60F021A4005D113F0200FF1
:1021E00002D010F0200F20D12AB115F0010222D127
:1021F000AF4E30421FD1226E012A00F0AB8013F4A3
:10220000801F03D015F4800F40F03F8113F0800F42
:1022100003D010F0800F40F03F8113F0400F03D047
:1022200010F0400F40F03F8170BDA36E002BFBD03B
:1022300020469847F8E713F0010F09D010F4807F8B
:1022400006D001250D62D4F884102943C4F8841007
:1022500013F0020F09D042B1216802250D62D4F8B3
:10226000841041F00401C4F8841013F0040F09D065
:1022700042B1216804250D62D4F8841041F00201B6
:10228000C4F8841013F0080F0BD010F0200F00D109
:102290003AB1226808211162D4F884200A43C4F8B4
:1022A000842013F4006F0CD010F0806F09D02268E6
:1022B0004FF400611162D4F8842042F02002C4F887
:1022C0008420D4F88420002AAED013F0200F06D04A
:1022D00010F0200F03D0A36E0BB120469847D4F81E
:1022E000842023689B6813F0400F02D112F0280F5E
:1022F00029D02046FFF796FE23689B6813F0400F15
:102300001DD0226802F1080353E8003F23F0400388
:10231000083242E800310029F3D1636F5BB1654AAE
:102320009A63606FFFF799FD00283FF47DAF606FFF
:10233000836B984778E72046FFF739FF74E720461C
:10234000FFF735FF70E72046FFF731FF0023C4F8A1
:10235000843069E713F0100F3FF451AF10F0100F05
:102360003FF44DAF10230B6223689B6813F0400FBE
:1023700051D0626F13685B689BB2002B3FF454AF7F
:10238000B4F8581099427FF64FAFA4F85A3013684A
:102390001B6813F0200F31D1226852E8003F23F46C
:1023A000807342E800310029F6D1226802F1080367
:1023B00053E8003F23F00103083242E800310029CE
:1023C000F3D1226802F1080353E8003F23F04003F1
:1023D000083242E800310029F3D12023C4F88030CC
:1023E00000232366226852E8003F23F0100342E8EE
:1023F00000310029F6D1606FFFF70AFD0223636602
:10240000B4F85810B4F85A309BB2C91A89B22046B1
:10241000FFF7D8FE08E7B4F85810B4F85A309BB26A
:10242000C91A89B2B4F85A309BB2002B3FF4FCAE03
:1024300000293FF4F9AE226852E8003F23F490737C
:1024400042E800300028F6D1226802F1080353E880
:10245000003F23F00103083242E800300028F3D1A6
:102460002023C4F8803000232366A366226852E844
:10247000003F23F0100342E800300028F6D1022389
:1024800063662046FFF79EFECEE64FF480130B6294
:10249000204600F013FCC7E6E36E002B3FF4C4AE09
:1024A00020469847C0E62046FFF76FFEBCE600BF17
:1024B00020010004B121000808B5B0F85C30D0F864
:1024C0008020222A06D00268138B9BB243F00803B7
:1024D000138308BD0268918CDBB2426D0B40137010
:1024E000436D01334365B0F85A309BB2013B9BB258
:1024F000A0F85A30B0F85A309BB2002BE9D10268EC
:1025000052E8003F23F4907342E800310029F6D1ED
:10251000026802F1080353E8003F23F00103083288
:1025200042E800310029F3D12023C0F88030002395
:10253000836643660368164A93420CD05B6813F4C3
:10254000000F08D0026852E8003F23F0806342E8A1
:1025500000310029F6D1036E012B16D1002303664A
:10256000026852E8003F23F0100342E800310029DE
:10257000F6D10368DA6912F0100F01D010221A6246
:10258000B0F85810FFF71EFEA3E7FFF70FFEA0E715
:102590000080004008B5B0F85C30D0F88020222AD6
:1025A00006D00268138B9BB243F00803138308BD67
:1025B0000268918C426D0B401380436D023343657A
:1025C000B0F85A309BB2013B9BB2A0F85A30B0F839
:1025D0005A309BB2002BEAD1026852E8003F23F444
:1025E000907342E800310029F6D1026802F1080335
:1025F00053E8003F23F00103083242E8003100298C
:10260000F3D12023C0F8803000238366436603683B
:10261000164A93420CD05B6813F4000F08D002688E
:1026200052E8003F23F0806342E800310029F6D1F0
:10263000036E012B16D100230366026852E8003FA7
:1026400023F0100342E800310029F6D10368DA696B
:1026500012F0100F01D010221A62B0F85810FFF7D4
:10266000B1FDA4E7FFF7A2FDA1E700BF0080004095
:1026700010B5044601688368026913434269134335
:10268000C26913430868954A024013430B602268ED
:10269000536823F44053E1680B435360A1692268F7
:1026A0008F4B9A4201D0236A1943936823F4306315
:1026B0000B43936023688B4A93421FD08A4A93420C
:1026C00030D08A4A934246D0854A934255D0102250
:1026D00083498B427AD0E069B0F5004F00F0A680C4
:1026E000082A00F20F81DFE812F0CE00E500CC00EE
:1026F0000D01E8000D010D010D01EB0002F558423E
:10270000D2F8882002F00302032A09D8DFE802F099
:1027100002044A060122DBE70422D9E70822D7E7B0
:102720001022D5E702F5E632D2F8882002F00C023A
:102730000C2A0ED8DFE802F0070D0D0D090D0D0D66
:10274000380D0D0D0B000022C2E70422C0E708225D
:10275000BEE71022BCE702F5E432D2F8882002F08E
:102760003002202A22D004D812B3102A22D1042207
:10277000AEE7302A20D10822AAE702F5C832D2F803
:10278000882002F44062B2F5006F17D005D8BAB1C4
:10279000B2F5806F16D104229AE7B2F5406F13D1DB
:1027A000082295E7022293E7022291E702228FE7AF
:1027B00000228DE710228BE7102289E7022287E7AB
:1027C000002285E7102283E7102281E7082A7AD8C1
:1027D000DFE802F008792A792779797905004FF442
:1027E000004003E0FEF7A4FF00286ED0626802EB11
:1027F000420383426BD8B0EB023F6AD8010E00025D
:102800005308C0184FF0000341F10001FDF7E0FC50
:10281000A0F54072364B9A425DD82368D8600020FC
:1028200044E0FEF72BFBDFE73248DFE7082A63D8F6
:10283000DFE802F007210562246262620B002D4886
:1028400003E0FEF775FF002858D06268530803EBD9
:102850004000B0FBF2F0A0F110024FF6EF739A4285
:102860004ED883B223F00F03C0F34200184323680D
:10287000D86000201AE0FEF76DFFE4E7FEF7FEFAED
:10288000E1E71C4803E0FEF753FF00283CD06368F3
:1028900000EB5300B0FBF3F0A0F110024FF6EF7322
:1028A0009A4233D8236880B2D86000200023A36600
:1028B000E36610BDFEF74EFFE7E7FEF7DFFAE4E759
:1028C0004FF40040E3E70120F0E70020EEE70120AD
:1028D000ECE70120EAE70120E8E700BFF369FFEF3A
:1028E00000800040003801400044004000480040A3
:1028F000FFFC0F000024F4000120D7E70020D5E7FB
:102900000120D3E70120D1E70020CFE70120CDE768
:10291000436A13F0080F06D00268536823F400439B
:10292000416B0B435360436A13F0010F06D00268FA
:10293000536823F40033816A0B435360436A13F0F6
:10294000020F06D00268536823F48033C16A0B4338
:102950005360436A13F0040F06D00268536823F4EF
:102960008023016B0B435360436A13F0100F06D0B2
:102970000268936823F48053816B0B439360436A2E
:1029800013F0200F06D00268936823F40053C16B44
:102990000B439360436A13F0400F0AD002685368F8
:1029A00023F48013016C0B435360036CB3F5801F59
:1029B0000BD0436A13F0800F06D00268536823F4EB
:1029C0000023816C0B43536070470268536823F403
:1029D000C003416C0B435360EBE72DE9F843054618
:1029E0000F4616469946DDF820802C68E46937EAE0
:1029F00004030CBF4FF0010C4FF0000CB44532D172
:102A0000B8F1FF3FF1D0FEF7EBF9A0EB090040452C
:102A10002CD8B8F1000F2BD02B681A6812F0040FD5
:102A2000E3D0DA6912F0080F11D1DA6912F4006FFD
:102A3000DBD04FF400621A622846FFF7F3FA202336
:102A4000C5F88430002385F8783003200CE0082492
:102A50001C622846FFF7E6FAC5F88440002385F893
:102A60007830012000E00020BDE8F8830320FBE778
:102A70000320F9E730B583B004460023C0F8843062
:102A8000FEF7AEF905462268126812F0080F0FD162
:102A900023681B6813F0040F26D12023E367C4F8D2
:102AA000803000202066606684F8780003B030BD76
:102AB0006FF07E430093034600224FF4001120463E
:102AC000FFF78BFF0028E3D0226852E8003F23F095
:102AD000800342E800310029F6D12023E367002378
:102AE00084F878300320E1E76FF07E4300932B46B3
:102AF00000224FF480012046FFF76FFF0028CCD062
:102B0000226852E8003F23F4907342E80031002924
:102B1000F6D1226802F1080353E8003F23F00103D5
:102B2000083242E800310029F3D12023C4F8803074
:102B3000002384F878300320B8E768B310B5044662
:102B4000C36F03B32423E3672268136823F00103F0
:102B50001360636AE3B92046FFF78AFD012811D0AC
:102B60002268536823F4904353602268936823F0EB
:102B70002A0393602268136843F001031360204620
:102B8000FFF778FF10BD80F87830FDF73FFED9E7FA
:102B90002046FFF7BDFEDEE7012070474165A0F843
:102BA0005820A0F85A20002383668368B3F5805F1D
:102BB00006D0A3B9036973B9FF23A0F85C3014E011
:102BC000036923B940F2FF13A0F85C300DE0FF2346
:102BD000A0F85C3009E07F23A0F85C3005E0B3F199
:102BE000805F27D00023A0F85C300023C0F8843039
:102BF0002223C0F88030026802F1080353E8003F46
:102C000043F00103083242E800310029F3D1836820
:102C1000B3F5805F18D0144B83660369D3B10268A3
:102C200052E8003F43F4907342E800310029F6D1A6
:102C30000020704703691BB97F23A0F85C30D4E7FC
:102C40003F23A0F85C30D0E70369002BE3D1074BAA
:102C50008366E2E7026852E8003F43F0200342E85F
:102C600000310029F6D1E3E7B924000895250008D2
:102C700038B5D0F88030202B17D1C1B1CAB10023AC
:102C8000036603680C4CA3420CD05B6813F4000F7E
:102C900008D0046854E8003F43F0806344E80035FE
:102CA000002DF6D1FFF77AFF00E0022038BD0120A9
:102CB000FCE70120FAE700BF0080004070470000F9
:102CC000034AD2F8883043F47003C2F88830704762
:102CD00000ED00E0DFF834D0FFF7F2FF0C480D49BB
:102CE0000D4A002302E0D458C4500433C4188C4267
:102CF000F9D30A4A0A4C002301E013600432A242CD
:102D0000FBD300F011F8FDF713FDFEE700C0002033
:102D10000000002020000020702E0008200000206D
:102D20001C010020FEE7000070B50D4D0D4C641B2A
:102D3000A4100026A64209D10B4D0C4C00F020F83F
:102D4000641BA4100026A64205D170BD55F8043BB3
:102D500098470136EEE755F8043B98470136F2E70D
:102D6000602E0008602E0008602E0008642E000807
:102D700002440346934200D1704703F8011BF9E770
:102D8000F8B500BFF8BC08BC9E467047F8B500BF58
:082D9000F8BC08BC9E46704728
:102D98005468657265206973206E6F2074686520B9
:102DA8007365636F6E642070617274206F6620743F
:102DB800686520636F64650A0000000054686572E6
:102DC80065206973206E6F20746865206669727368
:102DD800742070617274206F662074686520636F58
:102DE80064650A0054686572652061726520616CCB
:102DF8006C207061727473206F662074686520633C
:102E08006F64650A00000000000000000000000078
:102E18000102030406070809000000000102030478
:102E2800A0860100400D0300801A060000350C0042
:102E380040420F0080841E0000093D0000127A0005
:102E48000024F40000366E010048E801006CDC0242
:082E5800A8D3FF7F0100000078
:082E6000B501000800000000AC
:082E68009101000800000000C8
:102E700030303030303000003030300030303030E2
:102E800030000000303030011000000000093D002B
:0400000508002CD5EE
:00000001FF
